:02000000942941
:10000600710DF80DF90D7408F8027508031C750FCB
:10001600F902F00DF10D0F30FC00710DF80DF90D20
:100026007408701C1C28F8027508031C750FF90269
:100036002128F80775080318750FF907F00DF10D5B
:10004600FC0B102870182D287408F807750803187B
:08005600750FF9070000080016
:10005E00831203137408003A031D3E287508003AF4
:10006E00031D3E28FF30F0007F30F10097288312E9
:10007E000313FD01F901F80171087004031900342E
:10008E0071087506FA00FA1BFD09FB01F51F5428CD
:10009E00F409F509F40A0319F50AF11F5B28F009B2
:1000AE00F109F00A0319F10A71087504FA00FA1B36
:1000BE00702803207B188328FD1F0034F009F109F6
:1000CE00F00A0319F10AF809F909F80A0319F90AED
:1000DE000034F51F7F28F11B7B287108F90070088A
:1000EE00F800F101F0016328F101F001F00A00348B
:1000FE00F109F009FB0A6028F80A0319F90A7408D5
:10010E007802031D632875087902031D6328F9011F
:10011E00F801F00A0319F10AF11F63280000FF34F9
:02012E000800C7
:100130000A3083120313F4000030F5002008F000A9
:100140002108F1002F207808F0007908F1007008EC
:10015000A5007108A6000A30F4000030F500200860
:10016000F0002108F1002F200430F3007008F200A5
:1001700073080319BF28F20D7210FF3EB9287208E8
:06018000250786000800BF
:0E0186008312031324088A0023088200080055
:100194008312031308100815881088158812081292
:1001A4001730A0000030A1008030F000803021061C
:1001B4007002031DDF282008003C0318022985185B
:1001C400E4280229982000302106031DEB2803307F
:1001D4002006031DEF28081188140B30FB0026307D
:1001E400FC005D30FD00FD0BF528FC0BF528FB0B36
:1001F400F528000000000130A002031CA103D6284A
:020204000800F0
:100206008312031385184E29860105193E290130EC
:10021600A206081C152908140811881088118812CE
:1002260008161B2908100811881488158812081248
:100236000330A0000030A1008030F000803021069D
:100246007002031D28292008003C03183E29982027
:100256000B30FB002630FC005D30FD00FD0B312924
:10026600FC0B3129FB0B3129000000000130A002F4
:10027600031CA1031F29221C4729081408118810F2
:100286008811881608124D29081008158810881537
:08029600881208120329080078
:10029E008312031308140811881088118816081287
:1002AE000F30A0000030A1008030F0008030210619
:1002BE007002031D64292008003C03188729851845
:1002CE0069298729982000302106031D70290330E3
:1002DE002006031D7429081688120B30FB002630E9
:1002EE00FC005D30FD00FD0B7A29FC0B7A29FB0B1F
:1002FE007A29000000000130A002031CA1035B2933
:02030E000800E5
:10031000C3208A110A128000840AA30A0319A40ABE
:08032000F003031D8829080009
:1003280083120313A001A101A201073083169F00C5
:10033800013085003F3083128500831686018701CE
:10034800880183128601FF30870088012214051C6A
:10035800AE29AB290321221CB4294F21CA20B62972
:08036800CA204F21AE29B7297C
:02400E004A2F37
:00000001FF
